{
  "contractName": "MedicalRecord",
  "abi": [
    {
      "constant": false,
      "inputs": [
        {
          "name": "_docName",
          "type": "string"
        },
        {
          "name": "_docEmail",
          "type": "string"
        },
        {
          "name": "_spea",
          "type": "string"
        }
      ],
      "name": "setDoctorDetails",
      "outputs": [],
      "payable": false,
      "stateMutability": "nonpayable",
      "type": "function",
      "signature": "0x26db189c"
    },
    {
      "constant": true,
      "inputs": [],
      "name": "isRegistered",
      "outputs": [
        {
          "name": "role",
          "type": "uint256"
        }
      ],
      "payable": false,
      "stateMutability": "view",
      "type": "function",
      "signature": "0x22366844"
    },
    {
      "constant": false,
      "inputs": [
        {
          "name": "_patientName",
          "type": "string"
        },
        {
          "name": "_patientEmail",
          "type": "string"
        },
        {
          "name": "_patientAllDetails",
          "type": "string"
        }
      ],
      "name": "setPatientDetails",
      "outputs": [
        {
          "name": "sucess",
          "type": "bool"
        }
      ],
      "payable": false,
      "stateMutability": "nonpayable",
      "type": "function",
      "signature": "0x8edd1bfb"
    },
    {
      "constant": true,
      "inputs": [],
      "name": "getDoctorDetails",
      "outputs": [
        {
          "name": "doc",
          "type": "string"
        },
        {
          "name": "",
          "type": "string"
        },
        {
          "name": "",
          "type": "string"
        }
      ],
      "payable": false,
      "stateMutability": "view",
      "type": "function",
      "signature": "0x07ad7781"
    },
    {
      "constant": true,
      "inputs": [
        {
          "name": "_patientAddress",
          "type": "address"
        }
      ],
      "name": "getPatientInfo",
      "outputs": [
        {
          "name": "",
          "type": "string"
        },
        {
          "name": "",
          "type": "string"
        },
        {
          "name": "",
          "type": "string"
        }
      ],
      "payable": false,
      "stateMutability": "view",
      "type": "function",
      "signature": "0x4b426178"
    },
    {
      "constant": false,
      "inputs": [
        {
          "name": "_docAddress",
          "type": "address"
        }
      ],
      "name": "approveDoctor",
      "outputs": [
        {
          "name": "",
          "type": "bool"
        }
      ],
      "payable": false,
      "stateMutability": "nonpayable",
      "type": "function",
      "signature": "0x6160a5c2"
    },
    {
      "constant": true,
      "inputs": [],
      "name": "getDocsPatientsCount",
      "outputs": [
        {
          "name": "",
          "type": "uint256"
        }
      ],
      "payable": false,
      "stateMutability": "view",
      "type": "function",
      "signature": "0xa17eb0a5"
    },
    {
      "constant": true,
      "inputs": [
        {
          "name": "_index",
          "type": "uint256"
        }
      ],
      "name": "getDocsPatientAtI",
      "outputs": [
        {
          "name": "",
          "type": "string"
        },
        {
          "name": "",
          "type": "string"
        },
        {
          "name": "",
          "type": "string"
        }
      ],
      "payable": false,
      "stateMutability": "view",
      "type": "function",
      "signature": "0xc1b36377"
    }
  ],
  "bytecode": "0x608060405234801561001057600080fd5b50611f10806100206000396000f3fe60806040526004361061008e576000357c0100000000000000000000000000000000000000000000000000000000900463ffffffff16806307ad77811461009357806322366844146101fb57806326db189c146102265780634b4261781461041c5780636160a5c2146105be5780638edd1bfb14610627578063a17eb0a514610835578063c1b3637714610860575b600080fd5b34801561009f57600080fd5b506100a86109ec565b60405180806020018060200180602001848103845287818151815260200191508051906020019080838360005b838110156100f05780820151818401526020810190506100d5565b50505050905090810190601f16801561011d5780820380516001836020036101000a031916815260200191505b50848103835286818151815260200191508051906020019080838360005b8381101561015657808201518184015260208101905061013b565b50505050905090810190601f1680156101835780820380516001836020036101000a031916815260200191505b50848103825285818151815260200191508051906020019080838360005b838110156101bc5780820151818401526020810190506101a1565b50505050905090810190601f1680156101e95780820380516001836020036101000a031916815260200191505b50965050505050505060405180910390f35b34801561020757600080fd5b50610210610df8565b6040518082815260200191505060405180910390f35b34801561023257600080fd5b5061041a6004803603606081101561024957600080fd5b810190808035906020019064010000000081111561026657600080fd5b82018360208201111561027857600080fd5b8035906020019184600183028401116401000000008311171561029a57600080fd5b91908080601f016020809104026020016040519081016040528093929190818152602001838380828437600081840152601f19601f820116905080830192505050505050509192919290803590602001906401000000008111156102fd57600080fd5b82018360208201111561030f57600080fd5b8035906020019184600183028401116401000000008311171561033157600080fd5b91908080601f016020809104026020016040519081016040528093929190818152602001838380828437600081840152601f19601f8201169050808301925050505050505091929192908035906020019064010000000081111561039457600080fd5b8201836020820111156103a657600080fd5b803590602001918460018302840111640100000000831117156103c857600080fd5b91908080601f016020809104026020016040519081016040528093929190818152602001838380828437600081840152601f19601f82011690508083019250505050505050919291929050505061145e565b005b34801561042857600080fd5b5061046b6004803603602081101561043f57600080fd5b81019080803573ffffffffffffffffffffffffffffffffffffffff16906020019092919050505061155c565b60405180806020018060200180602001848103845287818151815260200191508051906020019080838360005b838110156104b3578082015181840152602081019050610498565b50505050905090810190601f1680156104e05780820380516001836020036101000a031916815260200191505b50848103835286818151815260200191508051906020019080838360005b838110156105195780820151818401526020810190506104fe565b50505050905090810190601f1680156105465780820380516001836020036101000a031916815260200191505b50848103825285818151815260200191508051906020019080838360005b8381101561057f578082015181840152602081019050610564565b50505050905090810190601f1680156105ac5780820380516001836020036101000a031916815260200191505b50965050505050505060405180910390f35b3480156105ca57600080fd5b5061060d600480360360208110156105e157600080fd5b81019080803573ffffffffffffffffffffffffffffffffffffffff169060200190929190505050611955565b604051808215151515815260200191505060405180910390f35b34801561063357600080fd5b5061081b6004803603606081101561064a57600080fd5b810190808035906020019064010000000081111561066757600080fd5b82018360208201111561067957600080fd5b8035906020019184600183028401116401000000008311171561069b57600080fd5b91908080601f016020809104026020016040519081016040528093929190818152602001838380828437600081840152601f19601f820116905080830192505050505050509192919290803590602001906401000000008111156106fe57600080fd5b82018360208201111561071057600080fd5b8035906020019184600183028401116401000000008311171561073257600080fd5b91908080601f016020809104026020016040519081016040528093929190818152602001838380828437600081840152601f19601f8201169050808301925050505050505091929192908035906020019064010000000081111561079557600080fd5b8201836020820111156107a757600080fd5b803590602001918460018302840111640100000000831117156107c957600080fd5b91908080601f016020809104026020016040519081016040528093929190818152602001838380828437600081840152601f19601f820116905080830192505050505050509192919290505050611c06565b604051808215151515815260200191505060405180910390f35b34801561084157600080fd5b5061084a611cc7565b6040518082815260200191505060405180910390f35b34801561086c57600080fd5b506108996004803603602081101561088357600080fd5b8101908080359060200190929190505050611d16565b60405180806020018060200180602001848103845287818151815260200191508051906020019080838360005b838110156108e15780820151818401526020810190506108c6565b50505050905090810190601f16801561090e5780820380516001836020036101000a031916815260200191505b50848103835286818151815260200191508051906020019080838360005b8381101561094757808201518184015260208101905061092c565b50505050905090810190601f1680156109745780820380516001836020036101000a031916815260200191505b50848103825285818151815260200191508051906020019080838360005b838110156109ad578082015181840152602081019050610992565b50505050905090810190601f1680156109da5780820380516001836020036101000a031916815260200191505b50965050505050505060405180910390f35b60608060606109f9611db0565b600160003373ffffffffffffffffffffffffffffffffffffffff1673ffffffffffffffffffffffffffffffffffffffff16815260200190815260200160002060e06040519081016040529081600082018054600181600116156101000203166002900480601f016020809104026020016040519081016040528092919081815260200182805460018160011615610100020316600290048015610add5780601f10610ab257610100808354040283529160200191610add565b820191906000526020600020905b815481529060010190602001808311610ac057829003601f168201915b50505050508152602001600182018054600181600116156101000203166002900480601f016020809104026020016040519081016040528092919081815260200182805460018160011615610100020316600290048015610b7f5780601f10610b5457610100808354040283529160200191610b7f565b820191906000526020600020905b815481529060010190602001808311610b6257829003601f168201915b505050505081526020016002820160009054906101000a900473ffffffffffffffffffffffffffffffffffffffff1673ffffffffffffffffffffffffffffffffffffffff1673ffffffffffffffffffffffffffffffffffffffff168152602001600382018054600181600116156101000203166002900480601f016020809104026020016040519081016040528092919081815260200182805460018160011615610100020316600290048015610c775780601f10610c4c57610100808354040283529160200191610c77565b820191906000526020600020905b815481529060010190602001808311610c5a57829003601f168201915b505050505081526020016004820160009054906101000a900460ff1615151515815260200160058201805480602002602001604051908101604052809291908181526020018280548015610d2057602002820191906000526020600020905b8160009054906101000a900473ffffffffffffffffffffffffffffffffffffffff1673ffffffffffffffffffffffffffffffffffffffff1681526020019060010190808311610cd6575b50505050508152602001600682015481525050905080608001511515610dd4576040517f08c379a00000000000000000000000000000000000000000000000000000000081526004018080602001828103825260278152602001807f4f6e6c7920446f63746f722063616e2073656520646f63746f727320696e666f81526020017f726d6174696f6e0000000000000000000000000000000000000000000000000081525060400191505060405180910390fd5b80600001518160200151826060015182925081915080905093509350935050909192565b6000610e02611e06565b6000803373ffffffffffffffffffffffffffffffffffffffff1673ffffffffffffffffffffffffffffffffffffffff16815260200190815260200160002060c06040519081016040529081600082018054600181600116156101000203166002900480601f016020809104026020016040519081016040528092919081815260200182805460018160011615610100020316600290048015610ee55780601f10610eba57610100808354040283529160200191610ee5565b820191906000526020600020905b815481529060010190602001808311610ec857829003601f168201915b50505050508152602001600182018054600181600116156101000203166002900480601f016020809104026020016040519081016040528092919081815260200182805460018160011615610100020316600290048015610f875780601f10610f5c57610100808354040283529160200191610f87565b820191906000526020600020905b815481529060010190602001808311610f6a57829003601f168201915b50505050508152602001600282018054600181600116156101000203166002900480601f0160208091040260200160405190810160405280929190818152602001828054600181600116156101000203166002900480156110295780601f10610ffe57610100808354040283529160200191611029565b820191906000526020600020905b81548152906001019060200180831161100c57829003601f168201915b50505050508152602001600382018054806020026020016040519081016040528092919081815260200182805480156110b757602002820191906000526020600020905b8160009054906101000a900473ffffffffffffffffffffffffffffffffffffffff1673ffffffffffffffffffffffffffffffffffffffff168152602001906001019080831161106d575b50505050508152602001600482015481526020016005820160009054906101000a900460ff16151515158152505090508060a00151156110fb57600191505061145b565b611103611db0565b600160003373ffffffffffffffffffffffffffffffffffffffff1673ffffffffffffffffffffffffffffffffffffffff16815260200190815260200160002060e06040519081016040529081600082018054600181600116156101000203166002900480601f0160208091040260200160405190810160405280929190818152602001828054600181600116156101000203166002900480156111e75780601f106111bc576101008083540402835291602001916111e7565b820191906000526020600020905b8154815290600101906020018083116111ca57829003601f168201915b50505050508152602001600182018054600181600116156101000203166002900480601f0160208091040260200160405190810160405280929190818152602001828054600181600116156101000203166002900480156112895780601f1061125e57610100808354040283529160200191611289565b820191906000526020600020905b81548152906001019060200180831161126c57829003601f168201915b505050505081526020016002820160009054906101000a900473ffffffffffffffffffffffffffffffffffffffff1673ffffffffffffffffffffffffffffffffffffffff1673ffffffffffffffffffffffffffffffffffffffff168152602001600382018054600181600116156101000203166002900480601f0160208091040260200160405190810160405280929190818152602001828054600181600116156101000203166002900480156113815780601f1061135657610100808354040283529160200191611381565b820191906000526020600020905b81548152906001019060200180831161136457829003601f168201915b505050505081526020016004820160009054906101000a900460ff161515151581526020016005820180548060200260200160405190810160405280929190818152602001828054801561142a57602002820191906000526020600020905b8160009054906101000a900473ffffffffffffffffffffffffffffffffffffffff1673ffffffffffffffffffffffffffffffffffffffff16815260200190600101908083116113e0575b5050505050815260200160068201548152505090508060800151156114545760009250505061145b565b6002925050505b90565b6000600160003373ffffffffffffffffffffffffffffffffffffffff1673ffffffffffffffffffffffffffffffffffffffff1681526020019081526020016000209050838160000190805190602001906114b9929190611e3f565b50828160010190805190602001906114d2929190611e3f565b50818160030190805190602001906114eb929190611e3f565b50338160020160006101000a81548173ffffffffffffffffffffffffffffffffffffffff021916908373ffffffffffffffffffffffffffffffffffffffff1602179055506000816006018190555060018160040160006101000a81548160ff02191690831515021790555050505050565b606080606060008060008673ffffffffffffffffffffffffffffffffffffffff1673ffffffffffffffffffffffffffffffffffffffff16815260200190815260200160002090508060050160009054906101000a900460ff161515611629576040517f08c379a00000000000000000000000000000000000000000000000000000000081526004018080602001828103825260168152602001807f50617469656e7420446f6573206e6f742065786973740000000000000000000081525060200191505060405180910390fd5b60008573ffffffffffffffffffffffffffffffffffffffff163373ffffffffffffffffffffffffffffffffffffffff1614905060008090505b82600401548110156116f0578115611679576116f0565b3373ffffffffffffffffffffffffffffffffffffffff1683600301828154811015156116a157fe5b9060005260206000200160009054906101000a900473ffffffffffffffffffffffffffffffffffffffff1673ffffffffffffffffffffffffffffffffffffffff16149150600181019050611662565b50801515611766576040517f08c379a00000000000000000000000000000000000000000000000000000000081526004018080602001828103825260098152602001807f4e4f20416363657373000000000000000000000000000000000000000000000081525060200191505060405180910390fd5b816000018260010183600201828054600181600116156101000203166002900480601f0160208091040260200160405190810160405280929190818152602001828054600181600116156101000203166002900480156118075780601f106117dc57610100808354040283529160200191611807565b820191906000526020600020905b8154815290600101906020018083116117ea57829003601f168201915b50505050509250818054600181600116156101000203166002900480601f0160208091040260200160405190810160405280929190818152602001828054600181600116156101000203166002900480156118a35780601f10611878576101008083540402835291602001916118a3565b820191906000526020600020905b81548152906001019060200180831161188657829003601f168201915b50505050509150808054600181600116156101000203166002900480601f01602080910402602001604051908101604052809291908181526020018280546001816001161561010002031660029004801561193f5780601f106119145761010080835404028352916020019161193f565b820191906000526020600020905b81548152906001019060200180831161192257829003601f168201915b5050505050905094509450945050509193909250565b6000806000803373ffffffffffffffffffffffffffffffffffffffff1673ffffffffffffffffffffffffffffffffffffffff16815260200190815260200160002090506000600160008573ffffffffffffffffffffffffffffffffffffffff1673ffffffffffffffffffffffffffffffffffffffff16815260200190815260200160002090508160050160009054906101000a900460ff161515611a61576040517f08c379a00000000000000000000000000000000000000000000000000000000081526004018080602001828103825260168152602001807f50617469656e7420446f6573206e6f742065786973740000000000000000000081525060200191505060405180910390fd5b8373ffffffffffffffffffffffffffffffffffffffff163373ffffffffffffffffffffffffffffffffffffffff1614151515611b05576040517f08c379a00000000000000000000000000000000000000000000000000000000081526004018080602001828103825260148152602001807f4164647265737320576173207468652053616d6500000000000000000000000081525060200191505060405180910390fd5b816003018490806001815401808255809150509060018203906000526020600020016000909192909190916101000a81548173ffffffffffffffffffffffffffffffffffffffff021916908373ffffffffffffffffffffffffffffffffffffffff1602179055505060018260040160008282540192505081905550806005013390806001815401808255809150509060018203906000526020600020016000909192909190916101000a81548173ffffffffffffffffffffffffffffffffffffffff021916908373ffffffffffffffffffffffffffffffffffffffff1602179055505060018160060160008282540192505081905550600192505050919050565b6000806000803373ffffffffffffffffffffffffffffffffffffffff1673ffffffffffffffffffffffffffffffffffffffff168152602001908152602001600020905084816000019080519060200190611c61929190611e3f565b5083816001019080519060200190611c7a929190611e3f565b5082816002019080519060200190611c93929190611e3f565b5060018160050160006101000a81548160ff0219169083151502179055506000816004018190555060019150509392505050565b600080600160003373ffffffffffffffffffffffffffffffffffffffff1673ffffffffffffffffffffffffffffffffffffffff1681526020019081526020016000209050806006015491505090565b60608060606000600160003373ffffffffffffffffffffffffffffffffffffffff1673ffffffffffffffffffffffffffffffffffffffff1681526020019081526020016000209050611da28160050186815481101515611d7257fe5b9060005260206000200160009054906101000a900473ffffffffffffffffffffffffffffffffffffffff1661155c565b935093509350509193909250565b60e0604051908101604052806060815260200160608152602001600073ffffffffffffffffffffffffffffffffffffffff1681526020016060815260200160001515815260200160608152602001600081525090565b60c06040519081016040528060608152602001606081526020016060815260200160608152602001600081526020016000151581525090565b828054600181600116156101000203166002900490600052602060002090601f016020900481019282601f10611e8057805160ff1916838001178555611eae565b82800160010185558215611eae579182015b82811115611ead578251825591602001919060010190611e92565b5b509050611ebb9190611ebf565b5090565b611ee191905b80821115611edd576000816000905550600101611ec5565b5090565b9056fea165627a7a72305820992beca404883bdf460f6f976f7cf1b2640ec9d9bc370d72aaad1ce6e3afbeb10029",
  "source": "pragma solidity >=0.4.22 <0.6.0;\r\n\r\ncontract MedicalRecord {\r\n    \r\n    struct Doctor{\r\n        string doctorName;\r\n        string doctorEmail;\r\n        address doctorAddress;\r\n        string specailist; // Set Speacilaist to a custom value\r\n        bool exists;\r\n\r\n        address[] hasAccess;\r\n        uint hasAccessCount;\r\n\r\n    }\r\n\r\n    \r\n    struct Patient{\r\n        string patientName;\r\n        string patientEmail;\r\n        string patientAllDetails;\r\n        address[] hasAccess;\r\n        uint hasAccessCount;\r\n        bool exists;\r\n\r\n    }\r\n    \r\n    mapping(address => Patient) patients;\r\n    mapping(address => Doctor) doctors;\r\n\r\n    \r\n    function setDoctorDetails(string memory _docName,string memory _docEmail,string memory _spea)  public {   //Set the details of doctors\r\n        Doctor storage d = doctors[msg.sender];\r\n        d.doctorName = _docName;\r\n        d.doctorEmail = _docEmail;\r\n        d.specailist = _spea;\r\n        d.doctorAddress = msg.sender;\r\n        d.hasAccessCount = 0;\r\n        d.exists = true;\r\n    }\r\n\r\n    function isRegistered() public view returns(uint role) {\r\n        Patient memory p = patients[msg.sender];\r\n        if(p.exists) {\r\n            return 1; //Patient\r\n        }\r\n        Doctor memory a = doctors[msg.sender];\r\n        if(a.exists) {\r\n            return 0;\r\n        }\r\n        return 2;\r\n    }\r\n    \r\n    function setPatientDetails(string memory _patientName,string memory _patientEmail,string memory _patientAllDetails) public  returns(bool sucess){\r\n        Patient storage p = patients[msg.sender];\r\n        p.patientName = _patientName;\r\n        p.patientEmail = _patientEmail;\r\n        p.patientAllDetails = _patientAllDetails;\r\n        p.exists = true;\r\n        p.hasAccessCount = 0;\r\n        return true;\r\n    }\r\n    \r\n    function getDoctorDetails() public view returns(string memory doc, string memory,string memory) {    //Get doctor details\r\n        Doctor memory s = doctors[msg.sender];\r\n        require(s.exists,\"Only Doctor can see doctors information\");\r\n        return (s.doctorName,s.doctorEmail,s.specailist);\r\n    }\r\n    \r\n    function getPatientInfo(address _patientAddress) public view returns(string memory, string memory, string memory) {    //Get Patient details.\r\n        Patient storage a = patients[_patientAddress];\r\n        require(a.exists,\"Patient Does not exist\");\r\n\r\n\r\n        bool canI = msg.sender == _patientAddress;\r\n\r\n            for(uint i=0;i<a.hasAccessCount;i+=1) {\r\n                if(canI) {\r\n                    break;\r\n                }\r\n                canI = a.hasAccess[i] == msg.sender;\r\n            }\r\n\r\n        require(canI,\"NO Access\");\r\n        return (a.patientName,\r\n                a.patientEmail,\r\n                a.patientAllDetails\r\n            );\r\n    }\r\n\r\n    function approveDoctor(address _docAddress) public returns(bool) {\r\n        Patient storage a = patients[msg.sender];\r\n        Doctor storage d = doctors[_docAddress];\r\n\r\n\r\n        require(a.exists,\"Patient Does not exist\");\r\n        require(msg.sender != _docAddress,\"Address Was the Same\");\r\n        \r\n        a.hasAccess.push(_docAddress);\r\n        a.hasAccessCount += 1;\r\n        \r\n        \r\n        d.hasAccess.push(msg.sender);\r\n        d.hasAccessCount += 1;\r\n\r\n\r\n        return true;\r\n    }\r\n\r\n    function getDocsPatientsCount() public view returns(uint){\r\n        Doctor storage d = doctors[msg.sender];\r\n        return d.hasAccessCount;\r\n    }\r\n    function getDocsPatientAtI(uint  _index) public view returns(string memory, string memory, string memory){\r\n        Doctor storage d = doctors[msg.sender];\r\n        return getPatientInfo(d.hasAccess[_index]);\r\n    }\r\n\r\n}\r\n",
  "sourcePath": "C:/Users/Nisha/Documents/Hackathons/KJ 2020/MedicalRecords/contracts/MedicalRecord.sol",
  "compiler": {
    "name": "solc",
    "version": "0.5.0+commit.1d4f565a.Emscripten.clang"
  },
  "schemaVersion": "3.0.1",
  "updatedAt": "2019-10-05T18:59:03.199Z",
  "devdoc": {
    "methods": {}
  },
  "userdoc": {
    "methods": {}
  }
}