{
  "contractName": "MedicalRecord",
  "abi": [
    {
      "constant": true,
      "inputs": [],
      "name": "docCount",
      "outputs": [
        {
          "name": "",
          "type": "uint256"
        }
      ],
      "payable": false,
      "stateMutability": "view",
      "type": "function",
      "signature": "0x4c4dc6e0"
    },
    {
      "constant": true,
      "inputs": [
        {
          "name": "",
          "type": "address"
        }
      ],
      "name": "doctors",
      "outputs": [
        {
          "name": "doctorName",
          "type": "string"
        },
        {
          "name": "doctorEmail",
          "type": "string"
        },
        {
          "name": "doctorAddress",
          "type": "address"
        },
        {
          "name": "specailist",
          "type": "string"
        },
        {
          "name": "exists",
          "type": "bool"
        },
        {
          "name": "hasAccessCount",
          "type": "uint256"
        },
        {
          "name": "ratingCount",
          "type": "uint256"
        },
        {
          "name": "experience",
          "type": "uint256"
        },
        {
          "name": "txCount",
          "type": "uint256"
        }
      ],
      "payable": false,
      "stateMutability": "view",
      "type": "function",
      "signature": "0xa9583c22"
    },
    {
      "constant": true,
      "inputs": [
        {
          "name": "",
          "type": "uint256"
        }
      ],
      "name": "docArray",
      "outputs": [
        {
          "name": "",
          "type": "address"
        }
      ],
      "payable": false,
      "stateMutability": "view",
      "type": "function",
      "signature": "0xfdcbc94d"
    },
    {
      "constant": false,
      "inputs": [
        {
          "name": "_docName",
          "type": "string"
        },
        {
          "name": "_docEmail",
          "type": "string"
        },
        {
          "name": "_spea",
          "type": "string"
        },
        {
          "name": "_exp",
          "type": "uint256"
        }
      ],
      "name": "setDoctorDetails",
      "outputs": [],
      "payable": false,
      "stateMutability": "nonpayable",
      "type": "function",
      "signature": "0xabc65256"
    },
    {
      "constant": true,
      "inputs": [],
      "name": "isRegistered",
      "outputs": [
        {
          "name": "role",
          "type": "uint256"
        }
      ],
      "payable": false,
      "stateMutability": "view",
      "type": "function",
      "signature": "0x22366844"
    },
    {
      "constant": false,
      "inputs": [
        {
          "name": "_patientName",
          "type": "string"
        },
        {
          "name": "_patientEmail",
          "type": "string"
        },
        {
          "name": "_patientAllDetails",
          "type": "string"
        }
      ],
      "name": "setPatientDetails",
      "outputs": [
        {
          "name": "sucess",
          "type": "bool"
        }
      ],
      "payable": false,
      "stateMutability": "nonpayable",
      "type": "function",
      "signature": "0x8edd1bfb"
    },
    {
      "constant": true,
      "inputs": [
        {
          "name": "_docAddress",
          "type": "address"
        }
      ],
      "name": "getDoctorDetails",
      "outputs": [
        {
          "name": "doc",
          "type": "string"
        },
        {
          "name": "",
          "type": "string"
        },
        {
          "name": "",
          "type": "string"
        },
        {
          "name": "",
          "type": "uint256"
        }
      ],
      "payable": false,
      "stateMutability": "view",
      "type": "function",
      "signature": "0xbab90dbd"
    },
    {
      "constant": true,
      "inputs": [
        {
          "name": "_patientAddress",
          "type": "address"
        }
      ],
      "name": "getPatientInfo",
      "outputs": [
        {
          "name": "",
          "type": "string"
        },
        {
          "name": "",
          "type": "string"
        },
        {
          "name": "",
          "type": "string"
        },
        {
          "name": "",
          "type": "address"
        }
      ],
      "payable": false,
      "stateMutability": "view",
      "type": "function",
      "signature": "0x4b426178"
    },
    {
      "constant": false,
      "inputs": [
        {
          "name": "_docAddress",
          "type": "address"
        }
      ],
      "name": "approveDoctor",
      "outputs": [
        {
          "name": "",
          "type": "bool"
        }
      ],
      "payable": false,
      "stateMutability": "nonpayable",
      "type": "function",
      "signature": "0x6160a5c2"
    },
    {
      "constant": true,
      "inputs": [],
      "name": "getDocsPatientsCount",
      "outputs": [
        {
          "name": "",
          "type": "uint256"
        }
      ],
      "payable": false,
      "stateMutability": "view",
      "type": "function",
      "signature": "0xa17eb0a5"
    },
    {
      "constant": true,
      "inputs": [
        {
          "name": "_index",
          "type": "uint256"
        }
      ],
      "name": "getDocsPatientAtI",
      "outputs": [
        {
          "name": "",
          "type": "string"
        },
        {
          "name": "",
          "type": "string"
        },
        {
          "name": "",
          "type": "string"
        },
        {
          "name": "",
          "type": "address"
        }
      ],
      "payable": false,
      "stateMutability": "view",
      "type": "function",
      "signature": "0xc1b36377"
    }
  ],
  "bytecode": "0x6080604052600060025534801561001557600080fd5b5061278e806100256000396000f3fe6080604052600436106100af576000357c0100000000000000000000000000000000000000000000000000000000900463ffffffff16806322366844146100b45780634b426178146100df5780634c4dc6e0146102b45780636160a5c2146102df5780638edd1bfb14610348578063a17eb0a514610556578063a9583c2214610581578063abc652561461077d578063bab90dbd1461097d578063c1b3637714610b26578063fdcbc94d14610ce5575b600080fd5b3480156100c057600080fd5b506100c9610d60565b6040518082815260200191505060405180910390f35b3480156100eb57600080fd5b5061012e6004803603602081101561010257600080fd5b81019080803573ffffffffffffffffffffffffffffffffffffffff169060200190929190505050611493565b604051808060200180602001806020018573ffffffffffffffffffffffffffffffffffffffff1673ffffffffffffffffffffffffffffffffffffffff168152602001848103845288818151815260200191508051906020019080838360005b838110156101a857808201518184015260208101905061018d565b50505050905090810190601f1680156101d55780820380516001836020036101000a031916815260200191505b50848103835287818151815260200191508051906020019080838360005b8381101561020e5780820151818401526020810190506101f3565b50505050905090810190601f16801561023b5780820380516001836020036101000a031916815260200191505b50848103825286818151815260200191508051906020019080838360005b83811015610274578082015181840152602081019050610259565b50505050905090810190601f1680156102a15780820380516001836020036101000a031916815260200191505b5097505050505050505060405180910390f35b3480156102c057600080fd5b506102c96118b4565b6040518082815260200191505060405180910390f35b3480156102eb57600080fd5b5061032e6004803603602081101561030257600080fd5b81019080803573ffffffffffffffffffffffffffffffffffffffff1690602001909291905050506118ba565b604051808215151515815260200191505060405180910390f35b34801561035457600080fd5b5061053c6004803603606081101561036b57600080fd5b810190808035906020019064010000000081111561038857600080fd5b82018360208201111561039a57600080fd5b803590602001918460018302840111640100000000831117156103bc57600080fd5b91908080601f016020809104026020016040519081016040528093929190818152602001838380828437600081840152601f19601f8201169050808301925050505050505091929192908035906020019064010000000081111561041f57600080fd5b82018360208201111561043157600080fd5b8035906020019184600183028401116401000000008311171561045357600080fd5b91908080601f016020809104026020016040519081016040528093929190818152602001838380828437600081840152601f19601f820116905080830192505050505050509192919290803590602001906401000000008111156104b657600080fd5b8201836020820111156104c857600080fd5b803590602001918460018302840111640100000000831117156104ea57600080fd5b91908080601f016020809104026020016040519081016040528093929190818152602001838380828437600081840152601f19601f820116905080830192505050505050509192919290505050611b6b565b604051808215151515815260200191505060405180910390f35b34801561056257600080fd5b5061056b611c6f565b6040518082815260200191505060405180910390f35b34801561058d57600080fd5b506105d0600480360360208110156105a457600080fd5b81019080803573ffffffffffffffffffffffffffffffffffffffff169060200190929190505050611cbe565b6040518080602001806020018a73ffffffffffffffffffffffffffffffffffffffff1673ffffffffffffffffffffffffffffffffffffffff168152602001806020018915151515815260200188815260200187815260200186815260200185815260200184810384528d818151815260200191508051906020019080838360005b8381101561066c578082015181840152602081019050610651565b50505050905090810190601f1680156106995780820380516001836020036101000a031916815260200191505b5084810383528c818151815260200191508051906020019080838360005b838110156106d25780820151818401526020810190506106b7565b50505050905090810190601f1680156106ff5780820380516001836020036101000a031916815260200191505b5084810382528a818151815260200191508051906020019080838360005b8381101561073857808201518184015260208101905061071d565b50505050905090810190601f1680156107655780820380516001836020036101000a031916815260200191505b509c5050505050505050505050505060405180910390f35b34801561078957600080fd5b5061097b600480360360808110156107a057600080fd5b81019080803590602001906401000000008111156107bd57600080fd5b8201836020820111156107cf57600080fd5b803590602001918460018302840111640100000000831117156107f157600080fd5b91908080601f016020809104026020016040519081016040528093929190818152602001838380828437600081840152601f19601f8201169050808301925050505050505091929192908035906020019064010000000081111561085457600080fd5b82018360208201111561086657600080fd5b8035906020019184600183028401116401000000008311171561088857600080fd5b91908080601f016020809104026020016040519081016040528093929190818152602001838380828437600081840152601f19601f820116905080830192505050505050509192919290803590602001906401000000008111156108eb57600080fd5b8201836020820111156108fd57600080fd5b8035906020019184600183028401116401000000008311171561091f57600080fd5b91908080601f016020809104026020016040519081016040528093929190818152602001838380828437600081840152601f19601f82011690508083019250505050505050919291929080359060200190929190505050611f01565b005b34801561098957600080fd5b506109cc600480360360208110156109a057600080fd5b81019080803573ffffffffffffffffffffffffffffffffffffffff16906020019092919050505061208a565b60405180806020018060200180602001858152602001848103845288818151815260200191508051906020019080838360005b83811015610a1a5780820151818401526020810190506109ff565b50505050905090810190601f168015610a475780820380516001836020036101000a031916815260200191505b50848103835287818151815260200191508051906020019080838360005b83811015610a80578082015181840152602081019050610a65565b50505050905090810190601f168015610aad5780820380516001836020036101000a031916815260200191505b50848103825286818151815260200191508051906020019080838360005b83811015610ae6578082015181840152602081019050610acb565b50505050905090810190601f168015610b135780820380516001836020036101000a031916815260200191505b5097505050505050505060405180910390f35b348015610b3257600080fd5b50610b5f60048036036020811015610b4957600080fd5b8101908080359060200190929190505050612519565b604051808060200180602001806020018573ffffffffffffffffffffffffffffffffffffffff1673ffffffffffffffffffffffffffffffffffffffff168152602001848103845288818151815260200191508051906020019080838360005b83811015610bd9578082015181840152602081019050610bbe565b50505050905090810190601f168015610c065780820380516001836020036101000a031916815260200191505b50848103835287818151815260200191508051906020019080838360005b83811015610c3f578082015181840152602081019050610c24565b50505050905090810190601f168015610c6c5780820380516001836020036101000a031916815260200191505b50848103825286818151815260200191508051906020019080838360005b83811015610ca5578082015181840152602081019050610c8a565b50505050905090810190601f168015610cd25780820380516001836020036101000a031916815260200191505b5097505050505050505060405180910390f35b348015610cf157600080fd5b50610d1e60048036036020811015610d0857600080fd5b81019080803590602001909291905050506125b6565b604051808273ffffffffffffffffffffffffffffffffffffffff1673ffffffffffffffffffffffffffffffffffffffff16815260200191505060405180910390f35b6000610d6a6125f4565b6000803373ffffffffffffffffffffffffffffffffffffffff1673ffffffffffffffffffffffffffffffffffffffff16815260200190815260200160002060e06040519081016040529081600082018054600181600116156101000203166002900480601f016020809104026020016040519081016040528092919081815260200182805460018160011615610100020316600290048015610e4d5780601f10610e2257610100808354040283529160200191610e4d565b820191906000526020600020905b815481529060010190602001808311610e3057829003601f168201915b50505050508152602001600182018054600181600116156101000203166002900480601f016020809104026020016040519081016040528092919081815260200182805460018160011615610100020316600290048015610eef5780601f10610ec457610100808354040283529160200191610eef565b820191906000526020600020905b815481529060010190602001808311610ed257829003601f168201915b50505050508152602001600282018054600181600116156101000203166002900480601f016020809104026020016040519081016040528092919081815260200182805460018160011615610100020316600290048015610f915780601f10610f6657610100808354040283529160200191610f91565b820191906000526020600020905b815481529060010190602001808311610f7457829003601f168201915b505050505081526020016003820180548060200260200160405190810160405280929190818152602001828054801561101f57602002820191906000526020600020905b8160009054906101000a900473ffffffffffffffffffffffffffffffffffffffff1673ffffffffffffffffffffffffffffffffffffffff1681526020019060010190808311610fd5575b505050505081526020016004820160009054906101000a900473ffffffffffffffffffffffffffffffffffffffff1673ffffffffffffffffffffffffffffffffffffffff1673ffffffffffffffffffffffffffffffffffffffff168152602001600582015481526020016006820160009054906101000a900460ff16151515158152505090508060c00151156110b9576001915050611490565b6110c161264a565b600160003373ffffffffffffffffffffffffffffffffffffffff1673ffffffffffffffffffffffffffffffffffffffff1681526020019081526020016000206101606040519081016040529081600082018054600181600116156101000203166002900480601f0160208091040260200160405190810160405280929190818152602001828054600181600116156101000203166002900480156111a65780601f1061117b576101008083540402835291602001916111a6565b820191906000526020600020905b81548152906001019060200180831161118957829003601f168201915b50505050508152602001600182018054600181600116156101000203166002900480601f0160208091040260200160405190810160405280929190818152602001828054600181600116156101000203166002900480156112485780601f1061121d57610100808354040283529160200191611248565b820191906000526020600020905b81548152906001019060200180831161122b57829003601f168201915b505050505081526020016002820160009054906101000a900473ffffffffffffffffffffffffffffffffffffffff1673ffffffffffffffffffffffffffffffffffffffff1673ffffffffffffffffffffffffffffffffffffffff168152602001600382018054600181600116156101000203166002900480601f0160208091040260200160405190810160405280929190818152602001828054600181600116156101000203166002900480156113405780601f1061131557610100808354040283529160200191611340565b820191906000526020600020905b81548152906001019060200180831161132357829003601f168201915b505050505081526020016004820160009054906101000a900460ff16151515158152602001600582018054806020026020016040519081016040528092919081815260200182805480156113e957602002820191906000526020600020905b8160009054906101000a900473ffffffffffffffffffffffffffffffffffffffff1673ffffffffffffffffffffffffffffffffffffffff168152602001906001019080831161139f575b50505050508152602001600682015481526020016007820180548060200260200160405190810160405280929190818152602001828054801561144b57602002820191906000526020600020905b815481526020019060010190808311611437575b505050505081526020016008820154815260200160098201548152602001600a82015481525050905080608001511561148957600092505050611490565b6002925050505b90565b60608060606000806000808773ffffffffffffffffffffffffffffffffffffffff1673ffffffffffffffffffffffffffffffffffffffff16815260200190815260200160002090508060060160009054906101000a900460ff161515611561576040517f08c379a00000000000000000000000000000000000000000000000000000000081526004018080602001828103825260168152602001807f50617469656e7420446f6573206e6f742065786973740000000000000000000081525060200191505060405180910390fd5b60008673ffffffffffffffffffffffffffffffffffffffff163373ffffffffffffffffffffffffffffffffffffffff1614905060008090505b82600501548110156116285781156115b157611628565b3373ffffffffffffffffffffffffffffffffffffffff1683600301828154811015156115d957fe5b9060005260206000200160009054906101000a900473ffffffffffffffffffffffffffffffffffffffff1673ffffffffffffffffffffffffffffffffffffffff1614915060018101905061159a565b5080151561169e576040517f08c379a00000000000000000000000000000000000000000000000000000000081526004018080602001828103825260098152602001807f4e4f20416363657373000000000000000000000000000000000000000000000081525060200191505060405180910390fd5b8160000182600101836002018460040160009054906101000a900473ffffffffffffffffffffffffffffffffffffffff16838054600181600116156101000203166002900480601f0160208091040260200160405190810160405280929190818152602001828054600181600116156101000203166002900480156117645780601f1061173957610100808354040283529160200191611764565b820191906000526020600020905b81548152906001019060200180831161174757829003601f168201915b50505050509350828054600181600116156101000203166002900480601f0160208091040260200160405190810160405280929190818152602001828054600181600116156101000203166002900480156118005780601f106117d557610100808354040283529160200191611800565b820191906000526020600020905b8154815290600101906020018083116117e357829003601f168201915b50505050509250818054600181600116156101000203166002900480601f01602080910402602001604051908101604052809291908181526020018280546001816001161561010002031660029004801561189c5780601f106118715761010080835404028352916020019161189c565b820191906000526020600020905b81548152906001019060200180831161187f57829003601f168201915b50505050509150955095509550955050509193509193565b60025481565b6000806000803373ffffffffffffffffffffffffffffffffffffffff1673ffffffffffffffffffffffffffffffffffffffff16815260200190815260200160002090506000600160008573ffffffffffffffffffffffffffffffffffffffff1673ffffffffffffffffffffffffffffffffffffffff16815260200190815260200160002090508160060160009054906101000a900460ff1615156119c6576040517f08c379a00000000000000000000000000000000000000000000000000000000081526004018080602001828103825260168152602001807f50617469656e7420446f6573206e6f742065786973740000000000000000000081525060200191505060405180910390fd5b8373ffffffffffffffffffffffffffffffffffffffff163373ffffffffffffffffffffffffffffffffffffffff1614151515611a6a576040517f08c379a00000000000000000000000000000000000000000000000000000000081526004018080602001828103825260148152602001807f4164647265737320576173207468652053616d6500000000000000000000000081525060200191505060405180910390fd5b816003018490806001815401808255809150509060018203906000526020600020016000909192909190916101000a81548173ffffffffffffffffffffffffffffffffffffffff021916908373ffffffffffffffffffffffffffffffffffffffff1602179055505060018260050160008282540192505081905550806005013390806001815401808255809150509060018203906000526020600020016000909192909190916101000a81548173ffffffffffffffffffffffffffffffffffffffff021916908373ffffffffffffffffffffffffffffffffffffffff1602179055505060018160060160008282540192505081905550600192505050919050565b6000806000803373ffffffffffffffffffffffffffffffffffffffff1673ffffffffffffffffffffffffffffffffffffffff168152602001908152602001600020905084816000019080519060200190611bc69291906126bd565b5083816001019080519060200190611bdf9291906126bd565b5082816002019080519060200190611bf89291906126bd565b5060018160060160006101000a81548160ff02191690831515021790555060008160050181905550338160040160006101000a81548173ffffffffffffffffffffffffffffffffffffffff021916908373ffffffffffffffffffffffffffffffffffffffff16021790555060019150509392505050565b600080600160003373ffffffffffffffffffffffffffffffffffffffff1673ffffffffffffffffffffffffffffffffffffffff1681526020019081526020016000209050806006015491505090565b6001602052806000526040600020600091509050806000018054600181600116156101000203166002900480601f016020809104026020016040519081016040528092919081815260200182805460018160011615610100020316600290048015611d6a5780601f10611d3f57610100808354040283529160200191611d6a565b820191906000526020600020905b815481529060010190602001808311611d4d57829003601f168201915b505050505090806001018054600181600116156101000203166002900480601f016020809104026020016040519081016040528092919081815260200182805460018160011615610100020316600290048015611e085780601f10611ddd57610100808354040283529160200191611e08565b820191906000526020600020905b815481529060010190602001808311611deb57829003601f168201915b5050505050908060020160009054906101000a900473ffffffffffffffffffffffffffffffffffffffff1690806003018054600181600116156101000203166002900480601f016020809104026020016040519081016040528092919081815260200182805460018160011615610100020316600290048015611ecc5780601f10611ea157610100808354040283529160200191611ecc565b820191906000526020600020905b815481529060010190602001808311611eaf57829003601f168201915b5050505050908060040160009054906101000a900460ff169080600601549080600801549080600901549080600a0154905089565b6000600160003373ffffffffffffffffffffffffffffffffffffffff1673ffffffffffffffffffffffffffffffffffffffff168152602001908152602001600020905084816000019080519060200190611f5c9291906126bd565b5083816001019080519060200190611f759291906126bd565b5082816003019080519060200190611f8e9291906126bd565b5081816009018190555060008160080181905550338160020160006101000a81548173ffffffffffffffffffffffffffffffffffffffff021916908373ffffffffffffffffffffffffffffffffffffffff1602179055506000816006018190555060033390806001815401808255809150509060018203906000526020600020016000909192909190916101000a81548173ffffffffffffffffffffffffffffffffffffffff021916908373ffffffffffffffffffffffffffffffffffffffff16021790555050600160026000828254019250508190555060018160040160006101000a81548160ff0219169083151502179055505050505050565b6060806060600061209961264a565b600160008773ffffffffffffffffffffffffffffffffffffffff1673ffffffffffffffffffffffffffffffffffffffff1681526020019081526020016000206101606040519081016040529081600082018054600181600116156101000203166002900480601f01602080910402602001604051908101604052809291908181526020018280546001816001161561010002031660029004801561217e5780601f106121535761010080835404028352916020019161217e565b820191906000526020600020905b81548152906001019060200180831161216157829003601f168201915b50505050508152602001600182018054600181600116156101000203166002900480601f0160208091040260200160405190810160405280929190818152602001828054600181600116156101000203166002900480156122205780601f106121f557610100808354040283529160200191612220565b820191906000526020600020905b81548152906001019060200180831161220357829003601f168201915b505050505081526020016002820160009054906101000a900473ffffffffffffffffffffffffffffffffffffffff1673ffffffffffffffffffffffffffffffffffffffff1673ffffffffffffffffffffffffffffffffffffffff168152602001600382018054600181600116156101000203166002900480601f0160208091040260200160405190810160405280929190818152602001828054600181600116156101000203166002900480156123185780601f106122ed57610100808354040283529160200191612318565b820191906000526020600020905b8154815290600101906020018083116122fb57829003601f168201915b505050505081526020016004820160009054906101000a900460ff16151515158152602001600582018054806020026020016040519081016040528092919081815260200182805480156123c157602002820191906000526020600020905b8160009054906101000a900473ffffffffffffffffffffffffffffffffffffffff1673ffffffffffffffffffffffffffffffffffffffff1681526020019060010190808311612377575b50505050508152602001600682015481526020016007820180548060200260200160405190810160405280929190818152602001828054801561242357602002820191906000526020600020905b81548152602001906001019080831161240f575b505050505081526020016008820154815260200160098201548152602001600a820154815250509050806080015115156124eb576040517f08c379a00000000000000000000000000000000000000000000000000000000081526004018080602001828103825260278152602001807f4f6e6c7920446f63746f722063616e2073656520646f63746f727320696e666f81526020017f726d6174696f6e0000000000000000000000000000000000000000000000000081525060400191505060405180910390fd5b8060000151816020015182606001518361012001518393508292508191509450945094509450509193509193565b6060806060600080600160003373ffffffffffffffffffffffffffffffffffffffff1673ffffffffffffffffffffffffffffffffffffffff16815260200190815260200160002090506125a6816005018781548110151561257657fe5b9060005260206000200160009054906101000a900473ffffffffffffffffffffffffffffffffffffffff16611493565b9450945094509450509193509193565b6003818154811015156125c557fe5b906000526020600020016000915054906101000a900473ffffffffffffffffffffffffffffffffffffffff1681565b60e06040519081016040528060608152602001606081526020016060815260200160608152602001600073ffffffffffffffffffffffffffffffffffffffff168152602001600081526020016000151581525090565b610160604051908101604052806060815260200160608152602001600073ffffffffffffffffffffffffffffffffffffffff168152602001606081526020016000151581526020016060815260200160008152602001606081526020016000815260200160008152602001600081525090565b828054600181600116156101000203166002900490600052602060002090601f016020900481019282601f106126fe57805160ff191683800117855561272c565b8280016001018555821561272c579182015b8281111561272b578251825591602001919060010190612710565b5b509050612739919061273d565b5090565b61275f91905b8082111561275b576000816000905550600101612743565b5090565b9056fea165627a7a7230582025fcd4f4e45ad4e42f363075edb5aa53e3ac663b00ee466ea28d9fc6c09f08800029",
  "source": "pragma solidity >=0.4.22 <0.6.0;\r\n\r\ncontract MedicalRecord {\r\n    \r\n    struct Doctor{\r\n        string doctorName;\r\n        string doctorEmail;\r\n        address doctorAddress;\r\n        string specailist; \r\n        bool exists;\r\n\r\n        address[] hasAccess;\r\n        uint hasAccessCount;\r\n\r\n        uint[] ratings;\r\n        uint ratingCount;\r\n\r\n        uint experience;\r\n\r\n        uint txCount;\r\n\r\n\r\n    }\r\n\r\n\r\n\r\n\r\n\r\n\r\n    \r\n    struct Patient{\r\n        string patientName;\r\n        string patientEmail;\r\n        string patientAllDetails;\r\n        address[] hasAccess;\r\n\r\n        address patientAddress;\r\n        uint hasAccessCount;\r\n        bool exists;\r\n    }\r\n    \r\n    mapping(address => Patient) patients;\r\n    mapping(address => Doctor) public doctors;\r\n\r\n    uint public docCount = 0;\r\n    address[] public docArray;\r\n\r\n    \r\n    function setDoctorDetails(string memory _docName,string memory _docEmail,string memory _spea,uint  _exp)  public {   //Set the details of doctors\r\n        Doctor storage d = doctors[msg.sender];\r\n        d.doctorName = _docName;\r\n        d.doctorEmail = _docEmail;\r\n        d.specailist = _spea;\r\n        d.experience = _exp;\r\n        d.ratingCount = 0;\r\n        d.doctorAddress = msg.sender;\r\n        d.hasAccessCount = 0;\r\n\r\n        docArray.push(msg.sender);\r\n        docCount += 1;\r\n\r\n        d.exists = true;\r\n    }\r\n\r\n    function isRegistered() public view returns(uint role) {\r\n        Patient memory p = patients[msg.sender];\r\n        if(p.exists) {\r\n            return 1; //Patient\r\n        }\r\n        Doctor memory a = doctors[msg.sender];\r\n        if(a.exists) {\r\n            return 0;\r\n        }\r\n        return 2;\r\n    }\r\n    \r\n    function setPatientDetails(string memory _patientName,string memory _patientEmail,string memory _patientAllDetails) public  returns(bool sucess){\r\n        Patient storage p = patients[msg.sender];\r\n        p.patientName = _patientName;\r\n        p.patientEmail = _patientEmail;\r\n        p.patientAllDetails = _patientAllDetails;\r\n        p.exists = true;\r\n        p.hasAccessCount = 0;\r\n        p.patientAddress = msg.sender;\r\n        return true;\r\n    }\r\n    \r\n    function getDoctorDetails(address _docAddress) public view returns(string memory doc, string memory,string memory,uint) {    //Get doctor details\r\n        Doctor memory s = doctors[_docAddress];\r\n        require(s.exists,\"Only Doctor can see doctors information\");\r\n\r\n        // uint sum = 0;\r\n        // for(uint i=0;i<s.ratingCount;i+=1) {\r\n        //     sum += s.ratings[i];\r\n        // }\r\n        return (s.doctorName,s.doctorEmail,s.specailist,s.experience);//sum,s.ratingCount);\r\n    }\r\n    \r\n    function getPatientInfo(address _patientAddress) public view returns(string memory, string memory, string memory,address) {    //Get Patient details.\r\n        Patient storage a = patients[_patientAddress];\r\n        require(a.exists,\"Patient Does not exist\");\r\n\r\n\r\n        bool canI = msg.sender == _patientAddress;\r\n\r\n            for(uint i=0;i<a.hasAccessCount;i+=1) {\r\n                if(canI) {\r\n                    break;\r\n                }\r\n                canI = a.hasAccess[i] == msg.sender;\r\n            }\r\n\r\n        require(canI,\"NO Access\");\r\n        return (a.patientName,\r\n                a.patientEmail,\r\n                a.patientAllDetails,\r\n                a.patientAddress\r\n            );\r\n    }\r\n\r\n    function approveDoctor(address _docAddress) public returns(bool) {\r\n        Patient storage a = patients[msg.sender];\r\n        Doctor storage d = doctors[_docAddress];\r\n\r\n\r\n        require(a.exists,\"Patient Does not exist\");\r\n        require(msg.sender != _docAddress,\"Address Was the Same\");\r\n        \r\n        a.hasAccess.push(_docAddress);\r\n        a.hasAccessCount += 1;\r\n        \r\n        \r\n        d.hasAccess.push(msg.sender);\r\n        d.hasAccessCount += 1;\r\n\r\n\r\n        return true;\r\n    }\r\n\r\n    function getDocsPatientsCount() public view returns(uint){\r\n        Doctor storage d = doctors[msg.sender];\r\n        return d.hasAccessCount;\r\n    }\r\n    function getDocsPatientAtI(uint  _index) public view returns(string memory, string memory, string memory,address ){\r\n        Doctor storage d = doctors[msg.sender];\r\n        return getPatientInfo(d.hasAccess[_index]);\r\n    }\r\n\r\n\r\n\r\n    // function createTransaction(address _docAddress,uint _amount) public {\r\n    //     Transaction storage d = txArray[txCount];\r\n\r\n    //     d.docAddr = _docAddress;\r\n    //     d.patientAddr = msg.sender;\r\n    //     d.value = _amount;\r\n        \r\n\r\n\r\n    // }\r\n\r\n\r\n\r\n\r\n}\r\n",
  "sourcePath": "C:/Users/Nisha/Documents/Hackathons/KJ 2020/MedicalRecords/contracts/MedicalRecord.sol",
  "compiler": {
    "name": "solc",
    "version": "0.5.0+commit.1d4f565a.Emscripten.clang"
  },
  "schemaVersion": "3.0.1",
  "updatedAt": "2019-10-06T06:38:40.252Z",
  "devdoc": {
    "methods": {}
  },
  "userdoc": {
    "methods": {}
  }
}